{
	"contracts/Wrapper.sol": {
		"Wrapper": {
			"abi": [
				{
					"inputs": [
						{
							"internalType": "address",
							"name": "_tcgAddress",
							"type": "address"
						},
						{
							"internalType": "address",
							"name": "_wtcgAddress",
							"type": "address"
						}
					],
					"stateMutability": "nonpayable",
					"type": "constructor"
				},
				{
					"inputs": [
						{
							"internalType": "uint256",
							"name": "_amount",
							"type": "uint256"
						}
					],
					"name": "unwrap",
					"outputs": [],
					"stateMutability": "nonpayable",
					"type": "function"
				},
				{
					"inputs": [
						{
							"internalType": "uint256",
							"name": "_amount",
							"type": "uint256"
						}
					],
					"name": "wrap",
					"outputs": [],
					"stateMutability": "nonpayable",
					"type": "function"
				}
			],
			"devdoc": {
				"kind": "dev",
				"methods": {},
				"version": 1
			},
			"evm": {
				"assembly": "    /* \"contracts/Wrapper.sol\":234:1578  contract Wrapper {... */\n  mstore(0x40, 0x80)\n    /* \"contracts/Wrapper.sol\":299:441  constructor(address _tcgAddress, address _wtcgAddress) {... */\n  callvalue\n  dup1\n  iszero\n  tag_1\n  jumpi\n  0x00\n  dup1\n  revert\ntag_1:\n  pop\n  mload(0x40)\n  sub(codesize, bytecodeSize)\n  dup1\n  bytecodeSize\n  dup4\n  codecopy\n  dup2\n  add\n  0x40\n  dup2\n  swap1\n  mstore\n  tag_2\n  swap2\n  tag_3\n  jump\t// in\ntag_2:\n    /* \"contracts/Wrapper.sol\":364:368  WTCG */\n  0x00\n    /* \"contracts/Wrapper.sol\":364:399  WTCG = IERC20Mintable(_wtcgAddress) */\n  dup1\n  sload\n  sub(shl(0xa0, 0x01), 0x01)\n  swap3\n  dup4\n  and\n  not(sub(shl(0xa0, 0x01), 0x01))\n  swap2\n  dup3\n  and\n  or\n  swap1\n  swap2\n  sstore\n  0x01\n    /* \"contracts/Wrapper.sol\":409:434  TCG = IERC20(_tcgAddress) */\n  dup1\n  sload\n  swap4\n  swap1\n  swap3\n  and\n  swap3\n  and\n  swap2\n  swap1\n  swap2\n  or\n  swap1\n  sstore\n    /* \"contracts/Wrapper.sol\":234:1578  contract Wrapper {... */\n  jump(tag_8)\n    /* \"#utility.yul\":14:191   */\ntag_7:\n    /* \"#utility.yul\":93:106   */\n  dup1\n  mload\n  sub(shl(0xa0, 0x01), 0x01)\n    /* \"#utility.yul\":135:166   */\n  dup2\n  and\n    /* \"#utility.yul\":125:167   */\n  dup2\n  eq\n    /* \"#utility.yul\":115:185   */\n  tag_10\n  jumpi\n    /* \"#utility.yul\":181:182   */\n  0x00\n    /* \"#utility.yul\":178:179   */\n  dup1\n    /* \"#utility.yul\":171:183   */\n  revert\n    /* \"#utility.yul\":115:185   */\ntag_10:\n    /* \"#utility.yul\":14:191   */\n  swap2\n  swap1\n  pop\n  jump\t// out\n    /* \"#utility.yul\":196:489   */\ntag_3:\n    /* \"#utility.yul\":275:281   */\n  0x00\n    /* \"#utility.yul\":283:289   */\n  dup1\n    /* \"#utility.yul\":336:338   */\n  0x40\n    /* \"#utility.yul\":324:333   */\n  dup4\n    /* \"#utility.yul\":315:322   */\n  dup6\n    /* \"#utility.yul\":311:334   */\n  sub\n    /* \"#utility.yul\":307:339   */\n  slt\n    /* \"#utility.yul\":304:356   */\n  iszero\n  tag_12\n  jumpi\n    /* \"#utility.yul\":352:353   */\n  0x00\n    /* \"#utility.yul\":349:350   */\n  dup1\n    /* \"#utility.yul\":342:354   */\n  revert\n    /* \"#utility.yul\":304:356   */\ntag_12:\n    /* \"#utility.yul\":375:415   */\n  tag_13\n    /* \"#utility.yul\":405:414   */\n  dup4\n    /* \"#utility.yul\":375:415   */\n  tag_7\n  jump\t// in\ntag_13:\n    /* \"#utility.yul\":365:415   */\n  swap2\n  pop\n    /* \"#utility.yul\":434:483   */\n  tag_14\n    /* \"#utility.yul\":479:481   */\n  0x20\n    /* \"#utility.yul\":468:477   */\n  dup5\n    /* \"#utility.yul\":464:482   */\n  add\n    /* \"#utility.yul\":434:483   */\n  tag_7\n  jump\t// in\ntag_14:\n    /* \"#utility.yul\":424:483   */\n  swap1\n  pop\n    /* \"#utility.yul\":196:489   */\n  swap3\n  pop\n  swap3\n  swap1\n  pop\n  jump\t// out\ntag_8:\n    /* \"contracts/Wrapper.sol\":234:1578  contract Wrapper {... */\n  dataSize(sub_0)\n  dup1\n  dataOffset(sub_0)\n  0x00\n  codecopy\n  0x00\n  return\nstop\n\nsub_0: assembly {\n        /* \"contracts/Wrapper.sol\":234:1578  contract Wrapper {... */\n      mstore(0x40, 0x80)\n      callvalue\n      dup1\n      iszero\n      tag_1\n      jumpi\n      0x00\n      dup1\n      revert\n    tag_1:\n      pop\n      jumpi(tag_2, lt(calldatasize, 0x04))\n      shr(0xe0, calldataload(0x00))\n      dup1\n      0xde0e9a3e\n      eq\n      tag_3\n      jumpi\n      dup1\n      0xea598cb0\n      eq\n      tag_4\n      jumpi\n    tag_2:\n      0x00\n      dup1\n      revert\n        /* \"contracts/Wrapper.sol\":997:1576  function unwrap(uint256 _amount) public {... */\n    tag_3:\n      tag_5\n      tag_6\n      calldatasize\n      0x04\n      tag_7\n      jump\t// in\n    tag_6:\n      tag_8\n      jump\t// in\n    tag_5:\n      stop\n        /* \"contracts/Wrapper.sol\":502:991  function wrap(uint256 _amount) public {... */\n    tag_4:\n      tag_5\n      tag_10\n      calldatasize\n      0x04\n      tag_7\n      jump\t// in\n    tag_10:\n      tag_11\n      jump\t// in\n        /* \"contracts/Wrapper.sol\":997:1576  function unwrap(uint256 _amount) public {... */\n    tag_8:\n        /* \"contracts/Wrapper.sol\":1068:1072  WTCG */\n      sload(0x00)\n        /* \"contracts/Wrapper.sol\":1068:1094  WTCG.balanceOf(msg.sender) */\n      mload(0x40)\n      shl(0xe0, 0x70a08231)\n      dup2\n      mstore\n        /* \"contracts/Wrapper.sol\":1083:1093  msg.sender */\n      caller\n        /* \"contracts/Wrapper.sol\":1068:1094  WTCG.balanceOf(msg.sender) */\n      0x04\n      dup3\n      add\n        /* \"#utility.yul\":345:396   */\n      mstore\n        /* \"contracts/Wrapper.sol\":1098:1105  _amount */\n      dup3\n      swap2\n      sub(shl(0xa0, 0x01), 0x01)\n        /* \"contracts/Wrapper.sol\":1068:1072  WTCG */\n      and\n      swap1\n        /* \"contracts/Wrapper.sol\":1068:1082  WTCG.balanceOf */\n      0x70a08231\n      swap1\n        /* \"#utility.yul\":318:336   */\n      0x24\n      add\n        /* \"contracts/Wrapper.sol\":1068:1094  WTCG.balanceOf(msg.sender) */\n      0x20\n      mload(0x40)\n      dup1\n      dup4\n      sub\n      dup2\n      dup7\n      gas\n      staticcall\n      iszero\n      dup1\n      iszero\n      tag_16\n      jumpi\n      returndatasize\n      0x00\n      dup1\n      returndatacopy\n      revert(0x00, returndatasize)\n    tag_16:\n      pop\n      pop\n      pop\n      pop\n      mload(0x40)\n      returndatasize\n      not(0x1f)\n      0x1f\n      dup3\n      add\n      and\n      dup3\n      add\n      dup1\n      0x40\n      mstore\n      pop\n      dup2\n      add\n      swap1\n      tag_17\n      swap2\n      swap1\n      tag_18\n      jump\t// in\n    tag_17:\n        /* \"contracts/Wrapper.sol\":1068:1105  WTCG.balanceOf(msg.sender) >= _amount */\n      lt\n      iszero\n        /* \"contracts/Wrapper.sol\":1047:1164  require(... */\n      tag_19\n      jumpi\n      mload(0x40)\n      shl(0xe5, 0x461bcd)\n      dup2\n      mstore\n      0x04\n      add\n      tag_20\n      swap1\n      tag_21\n      jump\t// in\n    tag_20:\n      mload(0x40)\n      dup1\n      swap2\n      sub\n      swap1\n      revert\n    tag_19:\n        /* \"contracts/Wrapper.sol\":1195:1199  WTCG */\n      sload(0x00)\n        /* \"contracts/Wrapper.sol\":1195:1236  WTCG.allowance(msg.sender, address(this)) */\n      mload(0x40)\n      shl(0xe1, 0x6eb1769f)\n      dup2\n      mstore\n        /* \"contracts/Wrapper.sol\":1210:1220  msg.sender */\n      caller\n        /* \"contracts/Wrapper.sol\":1195:1236  WTCG.allowance(msg.sender, address(this)) */\n      0x04\n      dup3\n      add\n        /* \"#utility.yul\":1210:1244   */\n      mstore\n        /* \"contracts/Wrapper.sol\":1230:1234  this */\n      address\n        /* \"#utility.yul\":1260:1278   */\n      0x24\n      dup3\n      add\n        /* \"#utility.yul\":1253:1296   */\n      mstore\n        /* \"contracts/Wrapper.sol\":1240:1247  _amount */\n      dup3\n      swap2\n      sub(shl(0xa0, 0x01), 0x01)\n        /* \"contracts/Wrapper.sol\":1195:1199  WTCG */\n      and\n      swap1\n        /* \"contracts/Wrapper.sol\":1195:1209  WTCG.allowance */\n      0xdd62ed3e\n      swap1\n        /* \"#utility.yul\":1145:1163   */\n      0x44\n      add\n        /* \"contracts/Wrapper.sol\":1195:1236  WTCG.allowance(msg.sender, address(this)) */\n      0x20\n      mload(0x40)\n      dup1\n      dup4\n      sub\n      dup2\n      dup7\n      gas\n      staticcall\n      iszero\n      dup1\n      iszero\n      tag_25\n      jumpi\n      returndatasize\n      0x00\n      dup1\n      returndatacopy\n      revert(0x00, returndatasize)\n    tag_25:\n      pop\n      pop\n      pop\n      pop\n      mload(0x40)\n      returndatasize\n      not(0x1f)\n      0x1f\n      dup3\n      add\n      and\n      dup3\n      add\n      dup1\n      0x40\n      mstore\n      pop\n      dup2\n      add\n      swap1\n      tag_26\n      swap2\n      swap1\n      tag_18\n      jump\t// in\n    tag_26:\n        /* \"contracts/Wrapper.sol\":1195:1247  WTCG.allowance(msg.sender, address(this)) >= _amount */\n      lt\n      iszero\n        /* \"contracts/Wrapper.sol\":1174:1300  require(... */\n      tag_27\n      jumpi\n      mload(0x40)\n      shl(0xe5, 0x461bcd)\n      dup2\n      mstore\n        /* \"#utility.yul\":1509:1511   */\n      0x20\n        /* \"contracts/Wrapper.sol\":1174:1300  require(... */\n      0x04\n      dup3\n      add\n        /* \"#utility.yul\":1491:1512   */\n      mstore\n        /* \"#utility.yul\":1548:1550   */\n      0x1b\n        /* \"#utility.yul\":1528:1546   */\n      0x24\n      dup3\n      add\n        /* \"#utility.yul\":1521:1551   */\n      mstore\n        /* \"#utility.yul\":1587:1616   */\n      0x4572726f723a20416c6c6f77616e6365206e6f7420656e6f7567680000000000\n        /* \"#utility.yul\":1567:1585   */\n      0x44\n      dup3\n      add\n        /* \"#utility.yul\":1560:1617   */\n      mstore\n        /* \"#utility.yul\":1634:1652   */\n      0x64\n      add\n        /* \"contracts/Wrapper.sol\":1174:1300  require(... */\n      tag_20\n        /* \"#utility.yul\":1307:1658   */\n      jump\n        /* \"contracts/Wrapper.sol\":1174:1300  require(... */\n    tag_27:\n        /* \"contracts/Wrapper.sol\":1331:1335  WTCG */\n      sload(0x00)\n        /* \"contracts/Wrapper.sol\":1331:1361  WTCG.burn(msg.sender, _amount) */\n      mload(0x40)\n      shl(0xe2, 0x2770a7eb)\n      dup2\n      mstore\n        /* \"contracts/Wrapper.sol\":1341:1351  msg.sender */\n      caller\n        /* \"contracts/Wrapper.sol\":1331:1361  WTCG.burn(msg.sender, _amount) */\n      0x04\n      dup3\n      add\n        /* \"#utility.yul\":1837:1888   */\n      mstore\n        /* \"#utility.yul\":1904:1922   */\n      0x24\n      dup2\n      add\n        /* \"#utility.yul\":1897:1931   */\n      dup4\n      swap1\n      mstore\n      sub(shl(0xa0, 0x01), 0x01)\n        /* \"contracts/Wrapper.sol\":1331:1335  WTCG */\n      swap1\n      swap2\n      and\n      swap1\n        /* \"contracts/Wrapper.sol\":1331:1340  WTCG.burn */\n      0x9dc29fac\n      swap1\n        /* \"#utility.yul\":1810:1828   */\n      0x44\n      add\n        /* \"contracts/Wrapper.sol\":1331:1361  WTCG.burn(msg.sender, _amount) */\n      0x00\n      mload(0x40)\n      dup1\n      dup4\n      sub\n      dup2\n      0x00\n      dup8\n      dup1\n      extcodesize\n      iszero\n      dup1\n      iszero\n      tag_32\n      jumpi\n      0x00\n      dup1\n      revert\n    tag_32:\n      pop\n      gas\n      call\n      iszero\n      dup1\n      iszero\n      tag_34\n      jumpi\n      returndatasize\n      0x00\n      dup1\n      returndatacopy\n      revert(0x00, returndatasize)\n    tag_34:\n      pop\n      pop\n        /* \"contracts/Wrapper.sol\":1420:1423  TCG */\n      sload(0x01)\n        /* \"contracts/Wrapper.sol\":1420:1448  TCG.balanceOf(address(this)) */\n      mload(0x40)\n      shl(0xe0, 0x70a08231)\n      dup2\n      mstore\n        /* \"contracts/Wrapper.sol\":1442:1446  this */\n      address\n        /* \"contracts/Wrapper.sol\":1420:1448  TCG.balanceOf(address(this)) */\n      0x04\n      dup3\n      add\n        /* \"#utility.yul\":345:396   */\n      mstore\n        /* \"contracts/Wrapper.sol\":1452:1459  _amount */\n      dup5\n      swap4\n      pop\n      sub(shl(0xa0, 0x01), 0x01)\n        /* \"contracts/Wrapper.sol\":1420:1423  TCG */\n      swap1\n      swap2\n      and\n      swap2\n      pop\n        /* \"contracts/Wrapper.sol\":1420:1433  TCG.balanceOf */\n      0x70a08231\n      swap1\n        /* \"#utility.yul\":318:336   */\n      0x24\n      add\n        /* \"contracts/Wrapper.sol\":1420:1448  TCG.balanceOf(address(this)) */\n      0x20\n      mload(0x40)\n      dup1\n      dup4\n      sub\n      dup2\n      dup7\n      gas\n      staticcall\n      iszero\n      dup1\n      iszero\n      tag_37\n      jumpi\n      returndatasize\n      0x00\n      dup1\n      returndatacopy\n      revert(0x00, returndatasize)\n    tag_37:\n      pop\n      pop\n      pop\n      pop\n      mload(0x40)\n      returndatasize\n      not(0x1f)\n      0x1f\n      dup3\n      add\n      and\n      dup3\n      add\n      dup1\n      0x40\n      mstore\n      pop\n      dup2\n      add\n      swap1\n      tag_38\n      swap2\n      swap1\n      tag_18\n      jump\t// in\n    tag_38:\n        /* \"contracts/Wrapper.sol\":1420:1459  TCG.balanceOf(address(this)) >= _amount */\n      lt\n      iszero\n        /* \"contracts/Wrapper.sol\":1399:1526  require(... */\n      tag_39\n      jumpi\n      mload(0x40)\n      shl(0xe5, 0x461bcd)\n      dup2\n      mstore\n        /* \"#utility.yul\":2144:2146   */\n      0x20\n        /* \"contracts/Wrapper.sol\":1399:1526  require(... */\n      0x04\n      dup3\n      add\n        /* \"#utility.yul\":2126:2147   */\n      mstore\n        /* \"#utility.yul\":2183:2185   */\n      0x29\n        /* \"#utility.yul\":2163:2181   */\n      0x24\n      dup3\n      add\n        /* \"#utility.yul\":2156:2186   */\n      mstore\n        /* \"#utility.yul\":2222:2256   */\n      0x4572726f723a20436f6e7472616374205443472042616c616e6365206973206e\n        /* \"#utility.yul\":2202:2220   */\n      0x44\n      dup3\n      add\n        /* \"#utility.yul\":2195:2257   */\n      mstore\n      shl(0xbb, 0x0dee840cadcdeeaced)\n        /* \"#utility.yul\":2273:2291   */\n      0x64\n      dup3\n      add\n        /* \"#utility.yul\":2266:2305   */\n      mstore\n        /* \"#utility.yul\":2322:2341   */\n      0x84\n      add\n        /* \"contracts/Wrapper.sol\":1399:1526  require(... */\n      tag_20\n        /* \"#utility.yul\":1942:2347   */\n      jump\n        /* \"contracts/Wrapper.sol\":1399:1526  require(... */\n    tag_39:\n        /* \"contracts/Wrapper.sol\":1536:1539  TCG */\n      sload(0x01)\n        /* \"contracts/Wrapper.sol\":1536:1569  TCG.transfer(msg.sender, _amount) */\n      mload(0x40)\n      shl(0xe0, 0xa9059cbb)\n      dup2\n      mstore\n        /* \"contracts/Wrapper.sol\":1549:1559  msg.sender */\n      caller\n        /* \"contracts/Wrapper.sol\":1536:1569  TCG.transfer(msg.sender, _amount) */\n      0x04\n      dup3\n      add\n        /* \"#utility.yul\":1837:1888   */\n      mstore\n        /* \"#utility.yul\":1904:1922   */\n      0x24\n      dup2\n      add\n        /* \"#utility.yul\":1897:1931   */\n      dup4\n      swap1\n      mstore\n      sub(shl(0xa0, 0x01), 0x01)\n        /* \"contracts/Wrapper.sol\":1536:1539  TCG */\n      swap1\n      swap2\n      and\n      swap1\n        /* \"contracts/Wrapper.sol\":1536:1548  TCG.transfer */\n      0xa9059cbb\n      swap1\n        /* \"#utility.yul\":1810:1828   */\n      0x44\n      add\n        /* \"contracts/Wrapper.sol\":1536:1569  TCG.transfer(msg.sender, _amount) */\n      0x20\n      mload(0x40)\n      dup1\n      dup4\n      sub\n      dup2\n      0x00\n      dup8\n      gas\n      call\n      iszero\n      dup1\n      iszero\n      tag_44\n      jumpi\n      returndatasize\n      0x00\n      dup1\n      returndatacopy\n      revert(0x00, returndatasize)\n    tag_44:\n      pop\n      pop\n      pop\n      pop\n      mload(0x40)\n      returndatasize\n      not(0x1f)\n      0x1f\n      dup3\n      add\n      and\n      dup3\n      add\n      dup1\n      0x40\n      mstore\n      pop\n      dup2\n      add\n      swap1\n      tag_45\n      swap2\n      swap1\n      tag_46\n      jump\t// in\n    tag_45:\n      pop\n        /* \"contracts/Wrapper.sol\":997:1576  function unwrap(uint256 _amount) public {... */\n      pop\n      jump\t// out\n        /* \"contracts/Wrapper.sol\":502:991  function wrap(uint256 _amount) public {... */\n    tag_11:\n        /* \"contracts/Wrapper.sol\":571:574  TCG */\n      sload(0x01)\n        /* \"contracts/Wrapper.sol\":571:596  TCG.balanceOf(msg.sender) */\n      mload(0x40)\n      shl(0xe0, 0x70a08231)\n      dup2\n      mstore\n        /* \"contracts/Wrapper.sol\":585:595  msg.sender */\n      caller\n        /* \"contracts/Wrapper.sol\":571:596  TCG.balanceOf(msg.sender) */\n      0x04\n      dup3\n      add\n        /* \"#utility.yul\":345:396   */\n      mstore\n        /* \"contracts/Wrapper.sol\":600:607  _amount */\n      dup3\n      swap2\n      sub(shl(0xa0, 0x01), 0x01)\n        /* \"contracts/Wrapper.sol\":571:574  TCG */\n      and\n      swap1\n        /* \"contracts/Wrapper.sol\":571:584  TCG.balanceOf */\n      0x70a08231\n      swap1\n        /* \"#utility.yul\":318:336   */\n      0x24\n      add\n        /* \"contracts/Wrapper.sol\":571:596  TCG.balanceOf(msg.sender) */\n      0x20\n      mload(0x40)\n      dup1\n      dup4\n      sub\n      dup2\n      dup7\n      gas\n      staticcall\n      iszero\n      dup1\n      iszero\n      tag_50\n      jumpi\n      returndatasize\n      0x00\n      dup1\n      returndatacopy\n      revert(0x00, returndatasize)\n    tag_50:\n      pop\n      pop\n      pop\n      pop\n      mload(0x40)\n      returndatasize\n      not(0x1f)\n      0x1f\n      dup3\n      add\n      and\n      dup3\n      add\n      dup1\n      0x40\n      mstore\n      pop\n      dup2\n      add\n      swap1\n      tag_51\n      swap2\n      swap1\n      tag_18\n      jump\t// in\n    tag_51:\n        /* \"contracts/Wrapper.sol\":571:607  TCG.balanceOf(msg.sender) >= _amount */\n      lt\n      iszero\n        /* \"contracts/Wrapper.sol\":550:666  require(... */\n      tag_52\n      jumpi\n      mload(0x40)\n      shl(0xe5, 0x461bcd)\n      dup2\n      mstore\n      0x04\n      add\n      tag_20\n      swap1\n      tag_21\n      jump\t// in\n    tag_52:\n        /* \"contracts/Wrapper.sol\":697:700  TCG */\n      sload(0x01)\n        /* \"contracts/Wrapper.sol\":697:737  TCG.allowance(msg.sender, address(this)) */\n      mload(0x40)\n      shl(0xe1, 0x6eb1769f)\n      dup2\n      mstore\n        /* \"contracts/Wrapper.sol\":711:721  msg.sender */\n      caller\n        /* \"contracts/Wrapper.sol\":697:737  TCG.allowance(msg.sender, address(this)) */\n      0x04\n      dup3\n      add\n        /* \"#utility.yul\":1210:1244   */\n      mstore\n        /* \"contracts/Wrapper.sol\":731:735  this */\n      address\n        /* \"#utility.yul\":1260:1278   */\n      0x24\n      dup3\n      add\n        /* \"#utility.yul\":1253:1296   */\n      mstore\n        /* \"contracts/Wrapper.sol\":741:748  _amount */\n      dup3\n      swap2\n      sub(shl(0xa0, 0x01), 0x01)\n        /* \"contracts/Wrapper.sol\":697:700  TCG */\n      and\n      swap1\n        /* \"contracts/Wrapper.sol\":697:710  TCG.allowance */\n      0xdd62ed3e\n      swap1\n        /* \"#utility.yul\":1145:1163   */\n      0x44\n      add\n        /* \"contracts/Wrapper.sol\":697:737  TCG.allowance(msg.sender, address(this)) */\n      0x20\n      mload(0x40)\n      dup1\n      dup4\n      sub\n      dup2\n      dup7\n      gas\n      staticcall\n      iszero\n      dup1\n      iszero\n      tag_56\n      jumpi\n      returndatasize\n      0x00\n      dup1\n      returndatacopy\n      revert(0x00, returndatasize)\n    tag_56:\n      pop\n      pop\n      pop\n      pop\n      mload(0x40)\n      returndatasize\n      not(0x1f)\n      0x1f\n      dup3\n      add\n      and\n      dup3\n      add\n      dup1\n      0x40\n      mstore\n      pop\n      dup2\n      add\n      swap1\n      tag_57\n      swap2\n      swap1\n      tag_18\n      jump\t// in\n    tag_57:\n        /* \"contracts/Wrapper.sol\":697:748  TCG.allowance(msg.sender, address(this)) >= _amount */\n      lt\n      iszero\n        /* \"contracts/Wrapper.sol\":676:801  require(... */\n      tag_58\n      jumpi\n      mload(0x40)\n      shl(0xe5, 0x461bcd)\n      dup2\n      mstore\n        /* \"#utility.yul\":1509:1511   */\n      0x20\n        /* \"contracts/Wrapper.sol\":676:801  require(... */\n      0x04\n      dup3\n      add\n        /* \"#utility.yul\":1491:1512   */\n      mstore\n        /* \"#utility.yul\":1548:1550   */\n      0x1b\n        /* \"#utility.yul\":1528:1546   */\n      0x24\n      dup3\n      add\n        /* \"#utility.yul\":1521:1551   */\n      mstore\n        /* \"#utility.yul\":1587:1616   */\n      0x4572726f723a20416c6c6f77616e6365206e6f7420656e6f7567680000000000\n        /* \"#utility.yul\":1567:1585   */\n      0x44\n      dup3\n      add\n        /* \"#utility.yul\":1560:1617   */\n      mstore\n        /* \"#utility.yul\":1634:1652   */\n      0x64\n      add\n        /* \"contracts/Wrapper.sol\":676:801  require(... */\n      tag_20\n        /* \"#utility.yul\":1307:1658   */\n      jump\n        /* \"contracts/Wrapper.sol\":676:801  require(... */\n    tag_58:\n        /* \"contracts/Wrapper.sol\":850:853  TCG */\n      sload(0x01)\n        /* \"contracts/Wrapper.sol\":850:902  TCG.transferFrom(msg.sender, address(this), _amount) */\n      mload(0x40)\n      shl(0xe0, 0x23b872dd)\n      dup2\n      mstore\n        /* \"contracts/Wrapper.sol\":867:877  msg.sender */\n      caller\n        /* \"contracts/Wrapper.sol\":850:902  TCG.transferFrom(msg.sender, address(this), _amount) */\n      0x04\n      dup3\n      add\n        /* \"#utility.yul\":2874:2908   */\n      mstore\n        /* \"contracts/Wrapper.sol\":887:891  this */\n      address\n        /* \"#utility.yul\":2924:2942   */\n      0x24\n      dup3\n      add\n        /* \"#utility.yul\":2917:2960   */\n      mstore\n        /* \"#utility.yul\":2976:2994   */\n      0x44\n      dup2\n      add\n        /* \"#utility.yul\":2969:3003   */\n      dup4\n      swap1\n      mstore\n      sub(shl(0xa0, 0x01), 0x01)\n        /* \"contracts/Wrapper.sol\":850:853  TCG */\n      swap1\n      swap2\n      and\n      swap1\n        /* \"contracts/Wrapper.sol\":850:866  TCG.transferFrom */\n      0x23b872dd\n      swap1\n        /* \"#utility.yul\":2809:2827   */\n      0x64\n      add\n        /* \"contracts/Wrapper.sol\":850:902  TCG.transferFrom(msg.sender, address(this), _amount) */\n      0x20\n      mload(0x40)\n      dup1\n      dup4\n      sub\n      dup2\n      0x00\n      dup8\n      gas\n      call\n      iszero\n      dup1\n      iszero\n      tag_63\n      jumpi\n      returndatasize\n      0x00\n      dup1\n      returndatacopy\n      revert(0x00, returndatasize)\n    tag_63:\n      pop\n      pop\n      pop\n      pop\n      mload(0x40)\n      returndatasize\n      not(0x1f)\n      0x1f\n      dup3\n      add\n      and\n      dup3\n      add\n      dup1\n      0x40\n      mstore\n      pop\n      dup2\n      add\n      swap1\n      tag_64\n      swap2\n      swap1\n      tag_46\n      jump\t// in\n    tag_64:\n      pop\n        /* \"contracts/Wrapper.sol\":954:958  WTCG */\n      sload(0x00)\n        /* \"contracts/Wrapper.sol\":954:984  WTCG.mint(msg.sender, _amount) */\n      mload(0x40)\n      shl(0xe0, 0x40c10f19)\n      dup2\n      mstore\n        /* \"contracts/Wrapper.sol\":964:974  msg.sender */\n      caller\n        /* \"contracts/Wrapper.sol\":954:984  WTCG.mint(msg.sender, _amount) */\n      0x04\n      dup3\n      add\n        /* \"#utility.yul\":1837:1888   */\n      mstore\n        /* \"#utility.yul\":1904:1922   */\n      0x24\n      dup2\n      add\n        /* \"#utility.yul\":1897:1931   */\n      dup4\n      swap1\n      mstore\n      sub(shl(0xa0, 0x01), 0x01)\n        /* \"contracts/Wrapper.sol\":954:958  WTCG */\n      swap1\n      swap2\n      and\n      swap1\n        /* \"contracts/Wrapper.sol\":954:963  WTCG.mint */\n      0x40c10f19\n      swap1\n        /* \"#utility.yul\":1810:1828   */\n      0x44\n      add\n        /* \"contracts/Wrapper.sol\":954:984  WTCG.mint(msg.sender, _amount) */\n      0x00\n      mload(0x40)\n      dup1\n      dup4\n      sub\n      dup2\n      0x00\n      dup8\n      dup1\n      extcodesize\n      iszero\n      dup1\n      iszero\n      tag_66\n      jumpi\n      0x00\n      dup1\n      revert\n    tag_66:\n      pop\n      gas\n      call\n      iszero\n      dup1\n      iszero\n      tag_68\n      jumpi\n      returndatasize\n      0x00\n      dup1\n      returndatacopy\n      revert(0x00, returndatasize)\n    tag_68:\n      pop\n      pop\n      pop\n      pop\n        /* \"contracts/Wrapper.sol\":502:991  function wrap(uint256 _amount) public {... */\n      pop\n      jump\t// out\n        /* \"#utility.yul\":14:194   */\n    tag_7:\n        /* \"#utility.yul\":73:79   */\n      0x00\n        /* \"#utility.yul\":126:128   */\n      0x20\n        /* \"#utility.yul\":114:123   */\n      dup3\n        /* \"#utility.yul\":105:112   */\n      dup5\n        /* \"#utility.yul\":101:124   */\n      sub\n        /* \"#utility.yul\":97:129   */\n      slt\n        /* \"#utility.yul\":94:146   */\n      iszero\n      tag_71\n      jumpi\n        /* \"#utility.yul\":142:143   */\n      0x00\n        /* \"#utility.yul\":139:140   */\n      dup1\n        /* \"#utility.yul\":132:144   */\n      revert\n        /* \"#utility.yul\":94:146   */\n    tag_71:\n      pop\n        /* \"#utility.yul\":165:188   */\n      calldataload\n      swap2\n        /* \"#utility.yul\":14:194   */\n      swap1\n      pop\n      jump\t// out\n        /* \"#utility.yul\":407:591   */\n    tag_18:\n        /* \"#utility.yul\":477:483   */\n      0x00\n        /* \"#utility.yul\":530:532   */\n      0x20\n        /* \"#utility.yul\":518:527   */\n      dup3\n        /* \"#utility.yul\":509:516   */\n      dup5\n        /* \"#utility.yul\":505:528   */\n      sub\n        /* \"#utility.yul\":501:533   */\n      slt\n        /* \"#utility.yul\":498:550   */\n      iszero\n      tag_74\n      jumpi\n        /* \"#utility.yul\":546:547   */\n      0x00\n        /* \"#utility.yul\":543:544   */\n      dup1\n        /* \"#utility.yul\":536:548   */\n      revert\n        /* \"#utility.yul\":498:550   */\n    tag_74:\n      pop\n        /* \"#utility.yul\":569:585   */\n      mload\n      swap2\n        /* \"#utility.yul\":407:591   */\n      swap1\n      pop\n      jump\t// out\n        /* \"#utility.yul\":596:993   */\n    tag_21:\n        /* \"#utility.yul\":798:800   */\n      0x20\n        /* \"#utility.yul\":780:801   */\n      dup1\n      dup3\n      mstore\n        /* \"#utility.yul\":837:839   */\n      0x21\n        /* \"#utility.yul\":817:835   */\n      swap1\n      dup3\n      add\n        /* \"#utility.yul\":810:840   */\n      mstore\n        /* \"#utility.yul\":876:910   */\n      0x4572726f723a20596f75722062616c616e6365206973206e6f7420656e6f7567\n        /* \"#utility.yul\":871:873   */\n      0x40\n        /* \"#utility.yul\":856:874   */\n      dup3\n      add\n        /* \"#utility.yul\":849:911   */\n      mstore\n      shl(0xfb, 0x0d)\n        /* \"#utility.yul\":942:944   */\n      0x60\n        /* \"#utility.yul\":927:945   */\n      dup3\n      add\n        /* \"#utility.yul\":920:951   */\n      mstore\n        /* \"#utility.yul\":983:986   */\n      0x80\n        /* \"#utility.yul\":968:987   */\n      add\n      swap1\n        /* \"#utility.yul\":596:993   */\n      jump\t// out\n        /* \"#utility.yul\":2352:2629   */\n    tag_46:\n        /* \"#utility.yul\":2419:2425   */\n      0x00\n        /* \"#utility.yul\":2472:2474   */\n      0x20\n        /* \"#utility.yul\":2460:2469   */\n      dup3\n        /* \"#utility.yul\":2451:2458   */\n      dup5\n        /* \"#utility.yul\":2447:2470   */\n      sub\n        /* \"#utility.yul\":2443:2475   */\n      slt\n        /* \"#utility.yul\":2440:2492   */\n      iszero\n      tag_81\n      jumpi\n        /* \"#utility.yul\":2488:2489   */\n      0x00\n        /* \"#utility.yul\":2485:2486   */\n      dup1\n        /* \"#utility.yul\":2478:2490   */\n      revert\n        /* \"#utility.yul\":2440:2492   */\n    tag_81:\n        /* \"#utility.yul\":2520:2529   */\n      dup2\n        /* \"#utility.yul\":2514:2530   */\n      mload\n        /* \"#utility.yul\":2573:2578   */\n      dup1\n        /* \"#utility.yul\":2566:2579   */\n      iszero\n        /* \"#utility.yul\":2559:2580   */\n      iszero\n        /* \"#utility.yul\":2552:2557   */\n      dup2\n        /* \"#utility.yul\":2549:2581   */\n      eq\n        /* \"#utility.yul\":2539:2599   */\n      tag_82\n      jumpi\n        /* \"#utility.yul\":2595:2596   */\n      0x00\n        /* \"#utility.yul\":2592:2593   */\n      dup1\n        /* \"#utility.yul\":2585:2597   */\n      revert\n        /* \"#utility.yul\":2539:2599   */\n    tag_82:\n        /* \"#utility.yul\":2618:2623   */\n      swap4\n        /* \"#utility.yul\":2352:2629   */\n      swap3\n      pop\n      pop\n      pop\n      jump\t// out\n\n    auxdata: 0xa26469706673582212201812b0b54a0e5ae36dbc869584eeb03a0f5768fa9a72f0339979626bbee61cf864736f6c634300080d0033\n}\n",
				"bytecode": {
					"linkReferences": {},
					"object": "608060405234801561001057600080fd5b5060405161072138038061072183398101604081905261002f9161007f565b600080546001600160a01b039283166001600160a01b031991821617909155600180549390921692169190911790556100b2565b80516001600160a01b038116811461007a57600080fd5b919050565b6000806040838503121561009257600080fd5b61009b83610063565b91506100a960208401610063565b90509250929050565b610660806100c16000396000f3fe608060405234801561001057600080fd5b50600436106100365760003560e01c8063de0e9a3e1461003b578063ea598cb014610050575b600080fd5b61004e61004936600461058e565b610063565b005b61004e61005e36600461058e565b610361565b6000546040516370a0823160e01b815233600482015282916001600160a01b0316906370a0823190602401602060405180830381865afa1580156100ab573d6000803e3d6000fd5b505050506040513d601f19601f820116820180604052508101906100cf91906105a7565b10156100f65760405162461bcd60e51b81526004016100ed906105c0565b60405180910390fd5b600054604051636eb1769f60e11b815233600482015230602482015282916001600160a01b03169063dd62ed3e90604401602060405180830381865afa158015610144573d6000803e3d6000fd5b505050506040513d601f19601f8201168201806040525081019061016891906105a7565b10156101b65760405162461bcd60e51b815260206004820152601b60248201527f4572726f723a20416c6c6f77616e6365206e6f7420656e6f756768000000000060448201526064016100ed565b600054604051632770a7eb60e21b8152336004820152602481018390526001600160a01b0390911690639dc29fac90604401600060405180830381600087803b15801561020257600080fd5b505af1158015610216573d6000803e3d6000fd5b50506001546040516370a0823160e01b81523060048201528493506001600160a01b0390911691506370a0823190602401602060405180830381865afa158015610264573d6000803e3d6000fd5b505050506040513d601f19601f8201168201806040525081019061028891906105a7565b10156102e85760405162461bcd60e51b815260206004820152602960248201527f4572726f723a20436f6e7472616374205443472042616c616e6365206973206e6044820152680dee840cadcdeeaced60bb1b60648201526084016100ed565b60015460405163a9059cbb60e01b8152336004820152602481018390526001600160a01b039091169063a9059cbb906044016020604051808303816000875af1158015610339573d6000803e3d6000fd5b505050506040513d601f19601f8201168201806040525081019061035d9190610601565b5050565b6001546040516370a0823160e01b815233600482015282916001600160a01b0316906370a0823190602401602060405180830381865afa1580156103a9573d6000803e3d6000fd5b505050506040513d601f19601f820116820180604052508101906103cd91906105a7565b10156103eb5760405162461bcd60e51b81526004016100ed906105c0565b600154604051636eb1769f60e11b815233600482015230602482015282916001600160a01b03169063dd62ed3e90604401602060405180830381865afa158015610439573d6000803e3d6000fd5b505050506040513d601f19601f8201168201806040525081019061045d91906105a7565b10156104ab5760405162461bcd60e51b815260206004820152601b60248201527f4572726f723a20416c6c6f77616e6365206e6f7420656e6f756768000000000060448201526064016100ed565b6001546040516323b872dd60e01b8152336004820152306024820152604481018390526001600160a01b03909116906323b872dd906064016020604051808303816000875af1158015610502573d6000803e3d6000fd5b505050506040513d601f19601f820116820180604052508101906105269190610601565b506000546040516340c10f1960e01b8152336004820152602481018390526001600160a01b03909116906340c10f1990604401600060405180830381600087803b15801561057357600080fd5b505af1158015610587573d6000803e3d6000fd5b5050505050565b6000602082840312156105a057600080fd5b5035919050565b6000602082840312156105b957600080fd5b5051919050565b60208082526021908201527f4572726f723a20596f75722062616c616e6365206973206e6f7420656e6f75676040820152600d60fb1b606082015260800190565b60006020828403121561061357600080fd5b8151801515811461062357600080fd5b939250505056fea26469706673582212201812b0b54a0e5ae36dbc869584eeb03a0f5768fa9a72f0339979626bbee61cf864736f6c634300080d0033",
					"opcodes": "PUSH1 0x80 PUSH1 0x40 MSTORE CALLVALUE DUP1 ISZERO PUSH2 0x10 JUMPI PUSH1 0x0 DUP1 REVERT JUMPDEST POP PUSH1 0x40 MLOAD PUSH2 0x721 CODESIZE SUB DUP1 PUSH2 0x721 DUP4 CODECOPY DUP2 ADD PUSH1 0x40 DUP2 SWAP1 MSTORE PUSH2 0x2F SWAP2 PUSH2 0x7F JUMP JUMPDEST PUSH1 0x0 DUP1 SLOAD PUSH1 0x1 PUSH1 0x1 PUSH1 0xA0 SHL SUB SWAP3 DUP4 AND PUSH1 0x1 PUSH1 0x1 PUSH1 0xA0 SHL SUB NOT SWAP2 DUP3 AND OR SWAP1 SWAP2 SSTORE PUSH1 0x1 DUP1 SLOAD SWAP4 SWAP1 SWAP3 AND SWAP3 AND SWAP2 SWAP1 SWAP2 OR SWAP1 SSTORE PUSH2 0xB2 JUMP JUMPDEST DUP1 MLOAD PUSH1 0x1 PUSH1 0x1 PUSH1 0xA0 SHL SUB DUP2 AND DUP2 EQ PUSH2 0x7A JUMPI PUSH1 0x0 DUP1 REVERT JUMPDEST SWAP2 SWAP1 POP JUMP JUMPDEST PUSH1 0x0 DUP1 PUSH1 0x40 DUP4 DUP6 SUB SLT ISZERO PUSH2 0x92 JUMPI PUSH1 0x0 DUP1 REVERT JUMPDEST PUSH2 0x9B DUP4 PUSH2 0x63 JUMP JUMPDEST SWAP2 POP PUSH2 0xA9 PUSH1 0x20 DUP5 ADD PUSH2 0x63 JUMP JUMPDEST SWAP1 POP SWAP3 POP SWAP3 SWAP1 POP JUMP JUMPDEST PUSH2 0x660 DUP1 PUSH2 0xC1 PUSH1 0x0 CODECOPY PUSH1 0x0 RETURN INVALID PUSH1 0x80 PUSH1 0x40 MSTORE CALLVALUE DUP1 ISZERO PUSH2 0x10 JUMPI PUSH1 0x0 DUP1 REVERT JUMPDEST POP PUSH1 0x4 CALLDATASIZE LT PUSH2 0x36 JUMPI PUSH1 0x0 CALLDATALOAD PUSH1 0xE0 SHR DUP1 PUSH4 0xDE0E9A3E EQ PUSH2 0x3B JUMPI DUP1 PUSH4 0xEA598CB0 EQ PUSH2 0x50 JUMPI JUMPDEST PUSH1 0x0 DUP1 REVERT JUMPDEST PUSH2 0x4E PUSH2 0x49 CALLDATASIZE PUSH1 0x4 PUSH2 0x58E JUMP JUMPDEST PUSH2 0x63 JUMP JUMPDEST STOP JUMPDEST PUSH2 0x4E PUSH2 0x5E CALLDATASIZE PUSH1 0x4 PUSH2 0x58E JUMP JUMPDEST PUSH2 0x361 JUMP JUMPDEST PUSH1 0x0 SLOAD PUSH1 0x40 MLOAD PUSH4 0x70A08231 PUSH1 0xE0 SHL DUP2 MSTORE CALLER PUSH1 0x4 DUP3 ADD MSTORE DUP3 SWAP2 PUSH1 0x1 PUSH1 0x1 PUSH1 0xA0 SHL SUB AND SWAP1 PUSH4 0x70A08231 SWAP1 PUSH1 0x24 ADD PUSH1 0x20 PUSH1 0x40 MLOAD DUP1 DUP4 SUB DUP2 DUP7 GAS STATICCALL ISZERO DUP1 ISZERO PUSH2 0xAB JUMPI RETURNDATASIZE PUSH1 0x0 DUP1 RETURNDATACOPY RETURNDATASIZE PUSH1 0x0 REVERT JUMPDEST POP POP POP POP PUSH1 0x40 MLOAD RETURNDATASIZE PUSH1 0x1F NOT PUSH1 0x1F DUP3 ADD AND DUP3 ADD DUP1 PUSH1 0x40 MSTORE POP DUP2 ADD SWAP1 PUSH2 0xCF SWAP2 SWAP1 PUSH2 0x5A7 JUMP JUMPDEST LT ISZERO PUSH2 0xF6 JUMPI PUSH1 0x40 MLOAD PUSH3 0x461BCD PUSH1 0xE5 SHL DUP2 MSTORE PUSH1 0x4 ADD PUSH2 0xED SWAP1 PUSH2 0x5C0 JUMP JUMPDEST PUSH1 0x40 MLOAD DUP1 SWAP2 SUB SWAP1 REVERT JUMPDEST PUSH1 0x0 SLOAD PUSH1 0x40 MLOAD PUSH4 0x6EB1769F PUSH1 0xE1 SHL DUP2 MSTORE CALLER PUSH1 0x4 DUP3 ADD MSTORE ADDRESS PUSH1 0x24 DUP3 ADD MSTORE DUP3 SWAP2 PUSH1 0x1 PUSH1 0x1 PUSH1 0xA0 SHL SUB AND SWAP1 PUSH4 0xDD62ED3E SWAP1 PUSH1 0x44 ADD PUSH1 0x20 PUSH1 0x40 MLOAD DUP1 DUP4 SUB DUP2 DUP7 GAS STATICCALL ISZERO DUP1 ISZERO PUSH2 0x144 JUMPI RETURNDATASIZE PUSH1 0x0 DUP1 RETURNDATACOPY RETURNDATASIZE PUSH1 0x0 REVERT JUMPDEST POP POP POP POP PUSH1 0x40 MLOAD RETURNDATASIZE PUSH1 0x1F NOT PUSH1 0x1F DUP3 ADD AND DUP3 ADD DUP1 PUSH1 0x40 MSTORE POP DUP2 ADD SWAP1 PUSH2 0x168 SWAP2 SWAP1 PUSH2 0x5A7 JUMP JUMPDEST LT ISZERO PUSH2 0x1B6 JUMPI PUSH1 0x40 MLOAD PUSH3 0x461BCD PUSH1 0xE5 SHL DUP2 MSTORE PUSH1 0x20 PUSH1 0x4 DUP3 ADD MSTORE PUSH1 0x1B PUSH1 0x24 DUP3 ADD MSTORE PUSH32 0x4572726F723A20416C6C6F77616E6365206E6F7420656E6F7567680000000000 PUSH1 0x44 DUP3 ADD MSTORE PUSH1 0x64 ADD PUSH2 0xED JUMP JUMPDEST PUSH1 0x0 SLOAD PUSH1 0x40 MLOAD PUSH4 0x2770A7EB PUSH1 0xE2 SHL DUP2 MSTORE CALLER PUSH1 0x4 DUP3 ADD MSTORE PUSH1 0x24 DUP2 ADD DUP4 SWAP1 MSTORE PUSH1 0x1 PUSH1 0x1 PUSH1 0xA0 SHL SUB SWAP1 SWAP2 AND SWAP1 PUSH4 0x9DC29FAC SWAP1 PUSH1 0x44 ADD PUSH1 0x0 PUSH1 0x40 MLOAD DUP1 DUP4 SUB DUP2 PUSH1 0x0 DUP8 DUP1 EXTCODESIZE ISZERO DUP1 ISZERO PUSH2 0x202 JUMPI PUSH1 0x0 DUP1 REVERT JUMPDEST POP GAS CALL ISZERO DUP1 ISZERO PUSH2 0x216 JUMPI RETURNDATASIZE PUSH1 0x0 DUP1 RETURNDATACOPY RETURNDATASIZE PUSH1 0x0 REVERT JUMPDEST POP POP PUSH1 0x1 SLOAD PUSH1 0x40 MLOAD PUSH4 0x70A08231 PUSH1 0xE0 SHL DUP2 MSTORE ADDRESS PUSH1 0x4 DUP3 ADD MSTORE DUP5 SWAP4 POP PUSH1 0x1 PUSH1 0x1 PUSH1 0xA0 SHL SUB SWAP1 SWAP2 AND SWAP2 POP PUSH4 0x70A08231 SWAP1 PUSH1 0x24 ADD PUSH1 0x20 PUSH1 0x40 MLOAD DUP1 DUP4 SUB DUP2 DUP7 GAS STATICCALL ISZERO DUP1 ISZERO PUSH2 0x264 JUMPI RETURNDATASIZE PUSH1 0x0 DUP1 RETURNDATACOPY RETURNDATASIZE PUSH1 0x0 REVERT JUMPDEST POP POP POP POP PUSH1 0x40 MLOAD RETURNDATASIZE PUSH1 0x1F NOT PUSH1 0x1F DUP3 ADD AND DUP3 ADD DUP1 PUSH1 0x40 MSTORE POP DUP2 ADD SWAP1 PUSH2 0x288 SWAP2 SWAP1 PUSH2 0x5A7 JUMP JUMPDEST LT ISZERO PUSH2 0x2E8 JUMPI PUSH1 0x40 MLOAD PUSH3 0x461BCD PUSH1 0xE5 SHL DUP2 MSTORE PUSH1 0x20 PUSH1 0x4 DUP3 ADD MSTORE PUSH1 0x29 PUSH1 0x24 DUP3 ADD MSTORE PUSH32 0x4572726F723A20436F6E7472616374205443472042616C616E6365206973206E PUSH1 0x44 DUP3 ADD MSTORE PUSH9 0xDEE840CADCDEEACED PUSH1 0xBB SHL PUSH1 0x64 DUP3 ADD MSTORE PUSH1 0x84 ADD PUSH2 0xED JUMP JUMPDEST PUSH1 0x1 SLOAD PUSH1 0x40 MLOAD PUSH4 0xA9059CBB PUSH1 0xE0 SHL DUP2 MSTORE CALLER PUSH1 0x4 DUP3 ADD MSTORE PUSH1 0x24 DUP2 ADD DUP4 SWAP1 MSTORE PUSH1 0x1 PUSH1 0x1 PUSH1 0xA0 SHL SUB SWAP1 SWAP2 AND SWAP1 PUSH4 0xA9059CBB SWAP1 PUSH1 0x44 ADD PUSH1 0x20 PUSH1 0x40 MLOAD DUP1 DUP4 SUB DUP2 PUSH1 0x0 DUP8 GAS CALL ISZERO DUP1 ISZERO PUSH2 0x339 JUMPI RETURNDATASIZE PUSH1 0x0 DUP1 RETURNDATACOPY RETURNDATASIZE PUSH1 0x0 REVERT JUMPDEST POP POP POP POP PUSH1 0x40 MLOAD RETURNDATASIZE PUSH1 0x1F NOT PUSH1 0x1F DUP3 ADD AND DUP3 ADD DUP1 PUSH1 0x40 MSTORE POP DUP2 ADD SWAP1 PUSH2 0x35D SWAP2 SWAP1 PUSH2 0x601 JUMP JUMPDEST POP POP JUMP JUMPDEST PUSH1 0x1 SLOAD PUSH1 0x40 MLOAD PUSH4 0x70A08231 PUSH1 0xE0 SHL DUP2 MSTORE CALLER PUSH1 0x4 DUP3 ADD MSTORE DUP3 SWAP2 PUSH1 0x1 PUSH1 0x1 PUSH1 0xA0 SHL SUB AND SWAP1 PUSH4 0x70A08231 SWAP1 PUSH1 0x24 ADD PUSH1 0x20 PUSH1 0x40 MLOAD DUP1 DUP4 SUB DUP2 DUP7 GAS STATICCALL ISZERO DUP1 ISZERO PUSH2 0x3A9 JUMPI RETURNDATASIZE PUSH1 0x0 DUP1 RETURNDATACOPY RETURNDATASIZE PUSH1 0x0 REVERT JUMPDEST POP POP POP POP PUSH1 0x40 MLOAD RETURNDATASIZE PUSH1 0x1F NOT PUSH1 0x1F DUP3 ADD AND DUP3 ADD DUP1 PUSH1 0x40 MSTORE POP DUP2 ADD SWAP1 PUSH2 0x3CD SWAP2 SWAP1 PUSH2 0x5A7 JUMP JUMPDEST LT ISZERO PUSH2 0x3EB JUMPI PUSH1 0x40 MLOAD PUSH3 0x461BCD PUSH1 0xE5 SHL DUP2 MSTORE PUSH1 0x4 ADD PUSH2 0xED SWAP1 PUSH2 0x5C0 JUMP JUMPDEST PUSH1 0x1 SLOAD PUSH1 0x40 MLOAD PUSH4 0x6EB1769F PUSH1 0xE1 SHL DUP2 MSTORE CALLER PUSH1 0x4 DUP3 ADD MSTORE ADDRESS PUSH1 0x24 DUP3 ADD MSTORE DUP3 SWAP2 PUSH1 0x1 PUSH1 0x1 PUSH1 0xA0 SHL SUB AND SWAP1 PUSH4 0xDD62ED3E SWAP1 PUSH1 0x44 ADD PUSH1 0x20 PUSH1 0x40 MLOAD DUP1 DUP4 SUB DUP2 DUP7 GAS STATICCALL ISZERO DUP1 ISZERO PUSH2 0x439 JUMPI RETURNDATASIZE PUSH1 0x0 DUP1 RETURNDATACOPY RETURNDATASIZE PUSH1 0x0 REVERT JUMPDEST POP POP POP POP PUSH1 0x40 MLOAD RETURNDATASIZE PUSH1 0x1F NOT PUSH1 0x1F DUP3 ADD AND DUP3 ADD DUP1 PUSH1 0x40 MSTORE POP DUP2 ADD SWAP1 PUSH2 0x45D SWAP2 SWAP1 PUSH2 0x5A7 JUMP JUMPDEST LT ISZERO PUSH2 0x4AB JUMPI PUSH1 0x40 MLOAD PUSH3 0x461BCD PUSH1 0xE5 SHL DUP2 MSTORE PUSH1 0x20 PUSH1 0x4 DUP3 ADD MSTORE PUSH1 0x1B PUSH1 0x24 DUP3 ADD MSTORE PUSH32 0x4572726F723A20416C6C6F77616E6365206E6F7420656E6F7567680000000000 PUSH1 0x44 DUP3 ADD MSTORE PUSH1 0x64 ADD PUSH2 0xED JUMP JUMPDEST PUSH1 0x1 SLOAD PUSH1 0x40 MLOAD PUSH4 0x23B872DD PUSH1 0xE0 SHL DUP2 MSTORE CALLER PUSH1 0x4 DUP3 ADD MSTORE ADDRESS PUSH1 0x24 DUP3 ADD MSTORE PUSH1 0x44 DUP2 ADD DUP4 SWAP1 MSTORE PUSH1 0x1 PUSH1 0x1 PUSH1 0xA0 SHL SUB SWAP1 SWAP2 AND SWAP1 PUSH4 0x23B872DD SWAP1 PUSH1 0x64 ADD PUSH1 0x20 PUSH1 0x40 MLOAD DUP1 DUP4 SUB DUP2 PUSH1 0x0 DUP8 GAS CALL ISZERO DUP1 ISZERO PUSH2 0x502 JUMPI RETURNDATASIZE PUSH1 0x0 DUP1 RETURNDATACOPY RETURNDATASIZE PUSH1 0x0 REVERT JUMPDEST POP POP POP POP PUSH1 0x40 MLOAD RETURNDATASIZE PUSH1 0x1F NOT PUSH1 0x1F DUP3 ADD AND DUP3 ADD DUP1 PUSH1 0x40 MSTORE POP DUP2 ADD SWAP1 PUSH2 0x526 SWAP2 SWAP1 PUSH2 0x601 JUMP JUMPDEST POP PUSH1 0x0 SLOAD PUSH1 0x40 MLOAD PUSH4 0x40C10F19 PUSH1 0xE0 SHL DUP2 MSTORE CALLER PUSH1 0x4 DUP3 ADD MSTORE PUSH1 0x24 DUP2 ADD DUP4 SWAP1 MSTORE PUSH1 0x1 PUSH1 0x1 PUSH1 0xA0 SHL SUB SWAP1 SWAP2 AND SWAP1 PUSH4 0x40C10F19 SWAP1 PUSH1 0x44 ADD PUSH1 0x0 PUSH1 0x40 MLOAD DUP1 DUP4 SUB DUP2 PUSH1 0x0 DUP8 DUP1 EXTCODESIZE ISZERO DUP1 ISZERO PUSH2 0x573 JUMPI PUSH1 0x0 DUP1 REVERT JUMPDEST POP GAS CALL ISZERO DUP1 ISZERO PUSH2 0x587 JUMPI RETURNDATASIZE PUSH1 0x0 DUP1 RETURNDATACOPY RETURNDATASIZE PUSH1 0x0 REVERT JUMPDEST POP POP POP POP POP JUMP JUMPDEST PUSH1 0x0 PUSH1 0x20 DUP3 DUP5 SUB SLT ISZERO PUSH2 0x5A0 JUMPI PUSH1 0x0 DUP1 REVERT JUMPDEST POP CALLDATALOAD SWAP2 SWAP1 POP JUMP JUMPDEST PUSH1 0x0 PUSH1 0x20 DUP3 DUP5 SUB SLT ISZERO PUSH2 0x5B9 JUMPI PUSH1 0x0 DUP1 REVERT JUMPDEST POP MLOAD SWAP2 SWAP1 POP JUMP JUMPDEST PUSH1 0x20 DUP1 DUP3 MSTORE PUSH1 0x21 SWAP1 DUP3 ADD MSTORE PUSH32 0x4572726F723A20596F75722062616C616E6365206973206E6F7420656E6F7567 PUSH1 0x40 DUP3 ADD MSTORE PUSH1 0xD PUSH1 0xFB SHL PUSH1 0x60 DUP3 ADD MSTORE PUSH1 0x80 ADD SWAP1 JUMP JUMPDEST PUSH1 0x0 PUSH1 0x20 DUP3 DUP5 SUB SLT ISZERO PUSH2 0x613 JUMPI PUSH1 0x0 DUP1 REVERT JUMPDEST DUP2 MLOAD DUP1 ISZERO ISZERO DUP2 EQ PUSH2 0x623 JUMPI PUSH1 0x0 DUP1 REVERT JUMPDEST SWAP4 SWAP3 POP POP POP JUMP INVALID LOG2 PUSH5 0x6970667358 0x22 SLT KECCAK256 XOR SLT 0xB0 0xB5 0x4A 0xE GAS 0xE3 PUSH14 0xBC869584EEB03A0F5768FA9A72F0 CALLER SWAP10 PUSH26 0x626BBEE61CF864736F6C634300080D0033000000000000000000 "
				},
				"gasEstimates": {
					"creation": {
						"codeDepositCost": "326400",
						"executionCost": "infinite",
						"totalCost": "infinite"
					},
					"external": {
						"unwrap(uint256)": "infinite",
						"wrap(uint256)": "infinite"
					}
				},
				"methodIdentifiers": {
					"unwrap(uint256)": "de0e9a3e",
					"wrap(uint256)": "ea598cb0"
				}
			},
			"userdoc": {
				"kind": "user",
				"methods": {},
				"version": 1
			}
		}
	}
}