{
  "contractName": "Wrapper",
  "abi": [
    {
      "inputs": [
        {
          "internalType": "address",
          "name": "_tcgAddress",
          "type": "address"
        },
        {
          "internalType": "address",
          "name": "_wtcgAddress",
          "type": "address"
        }
      ],
      "stateMutability": "nonpayable",
      "type": "constructor"
    },
    {
      "inputs": [
        {
          "internalType": "uint256",
          "name": "_amount",
          "type": "uint256"
        }
      ],
      "name": "wrap",
      "outputs": [],
      "stateMutability": "nonpayable",
      "type": "function"
    },
    {
      "inputs": [
        {
          "internalType": "uint256",
          "name": "_amount",
          "type": "uint256"
        }
      ],
      "name": "unwrap",
      "outputs": [],
      "stateMutability": "nonpayable",
      "type": "function"
    }
  ],
  "bytecode": "0x608060405234801561001057600080fd5b50604051610d8c380380610d8c8339818101604052810190610032919061011d565b806000806101000a81548173ffffffffffffffffffffffffffffffffffffffff021916908373ffffffffffffffffffffffffffffffffffffffff16021790555081600160006101000a81548173ffffffffffffffffffffffffffffffffffffffff021916908373ffffffffffffffffffffffffffffffffffffffff160217905550505061015d565b600080fd5b600073ffffffffffffffffffffffffffffffffffffffff82169050919050565b60006100ea826100bf565b9050919050565b6100fa816100df565b811461010557600080fd5b50565b600081519050610117816100f1565b92915050565b60008060408385031215610134576101336100ba565b5b600061014285828601610108565b925050602061015385828601610108565b9150509250929050565b610c208061016c6000396000f3fe608060405234801561001057600080fd5b5060043610610053576000357c010000000000000000000000000000000000000000000000000000000090048063de0e9a3e14610058578063ea598cb014610074575b600080fd5b610072600480360381019061006d9190610881565b610090565b005b61008e60048036038101906100899190610881565b6104e5565b005b8060008054906101000a900473ffffffffffffffffffffffffffffffffffffffff1673ffffffffffffffffffffffffffffffffffffffff166370a08231336040518263ffffffff167c010000000000000000000000000000000000000000000000000000000002815260040161010691906108ef565b602060405180830381865afa158015610123573d6000803e3d6000fd5b505050506040513d601f19601f82011682018060405250810190610147919061091f565b1015610188576040517f08c379a000000000000000000000000000000000000000000000000000000000815260040161017f906109cf565b60405180910390fd5b8060008054906101000a900473ffffffffffffffffffffffffffffffffffffffff1673ffffffffffffffffffffffffffffffffffffffff1663dd62ed3e33306040518363ffffffff167c01000000000000000000000000000000000000000000000000000000000281526004016102009291906109ef565b602060405180830381865afa15801561021d573d6000803e3d6000fd5b505050506040513d601f19601f82011682018060405250810190610241919061091f565b1015610282576040517f08c379a000000000000000000000000000000000000000000000000000000000815260040161027990610a64565b60405180910390fd5b60008054906101000a900473ffffffffffffffffffffffffffffffffffffffff1673ffffffffffffffffffffffffffffffffffffffff16639dc29fac33836040518363ffffffff167c01000000000000000000000000000000000000000000000000000000000281526004016102f9929190610a93565b600060405180830381600087803b15801561031357600080fd5b505af1158015610327573d6000803e3d6000fd5b5050505080600160009054906101000a900473ffffffffffffffffffffffffffffffffffffffff1673ffffffffffffffffffffffffffffffffffffffff166370a08231306040518263ffffffff167c01000000000000000000000000000000000000000000000000000000000281526004016103a391906108ef565b602060405180830381865afa1580156103c0573d6000803e3d6000fd5b505050506040513d601f19601f820116820180604052508101906103e4919061091f565b1015610425576040517f08c379a000000000000000000000000000000000000000000000000000000000815260040161041c90610b2e565b60405180910390fd5b600160009054906101000a900473ffffffffffffffffffffffffffffffffffffffff1673ffffffffffffffffffffffffffffffffffffffff1663a9059cbb33836040518363ffffffff167c010000000000000000000000000000000000000000000000000000000002815260040161049e929190610a93565b6020604051808303816000875af11580156104bd573d6000803e3d6000fd5b505050506040513d601f19601f820116820180604052508101906104e19190610b86565b5050565b80600160009054906101000a900473ffffffffffffffffffffffffffffffffffffffff1673ffffffffffffffffffffffffffffffffffffffff166370a08231336040518263ffffffff167c010000000000000000000000000000000000000000000000000000000002815260040161055d91906108ef565b602060405180830381865afa15801561057a573d6000803e3d6000fd5b505050506040513d601f19601f8201168201806040525081019061059e919061091f565b10156105df576040517f08c379a00000000000000000000000000000000000000000000000000000000081526004016105d6906109cf565b60405180910390fd5b80600160009054906101000a900473ffffffffffffffffffffffffffffffffffffffff1673ffffffffffffffffffffffffffffffffffffffff1663dd62ed3e33306040518363ffffffff167c01000000000000000000000000000000000000000000000000000000000281526004016106599291906109ef565b602060405180830381865afa158015610676573d6000803e3d6000fd5b505050506040513d601f19601f8201168201806040525081019061069a919061091f565b10156106db576040517f08c379a00000000000000000000000000000000000000000000000000000000081526004016106d290610a64565b60405180910390fd5b600160009054906101000a900473ffffffffffffffffffffffffffffffffffffffff1673ffffffffffffffffffffffffffffffffffffffff166323b872dd3330846040518463ffffffff167c010000000000000000000000000000000000000000000000000000000002815260040161075693929190610bb3565b6020604051808303816000875af1158015610775573d6000803e3d6000fd5b505050506040513d601f19601f820116820180604052508101906107999190610b86565b5060008054906101000a900473ffffffffffffffffffffffffffffffffffffffff1673ffffffffffffffffffffffffffffffffffffffff166340c10f1933836040518363ffffffff167c0100000000000000000000000000000000000000000000000000000000028152600401610811929190610a93565b600060405180830381600087803b15801561082b57600080fd5b505af115801561083f573d6000803e3d6000fd5b5050505050565b600080fd5b6000819050919050565b61085e8161084b565b811461086957600080fd5b50565b60008135905061087b81610855565b92915050565b60006020828403121561089757610896610846565b5b60006108a58482850161086c565b91505092915050565b600073ffffffffffffffffffffffffffffffffffffffff82169050919050565b60006108d9826108ae565b9050919050565b6108e9816108ce565b82525050565b600060208201905061090460008301846108e0565b92915050565b60008151905061091981610855565b92915050565b60006020828403121561093557610934610846565b5b60006109438482850161090a565b91505092915050565b600082825260208201905092915050565b7f4572726f723a20596f75722062616c616e6365206973206e6f7420656e6f756760008201527f6800000000000000000000000000000000000000000000000000000000000000602082015250565b60006109b960218361094c565b91506109c48261095d565b604082019050919050565b600060208201905081810360008301526109e8816109ac565b9050919050565b6000604082019050610a0460008301856108e0565b610a1160208301846108e0565b9392505050565b7f4572726f723a20416c6c6f77616e6365206e6f7420656e6f7567680000000000600082015250565b6000610a4e601b8361094c565b9150610a5982610a18565b602082019050919050565b60006020820190508181036000830152610a7d81610a41565b9050919050565b610a8d8161084b565b82525050565b6000604082019050610aa860008301856108e0565b610ab56020830184610a84565b9392505050565b7f4572726f723a20436f6e7472616374205443472042616c616e6365206973206e60008201527f6f7420656e6f7567680000000000000000000000000000000000000000000000602082015250565b6000610b1860298361094c565b9150610b2382610abc565b604082019050919050565b60006020820190508181036000830152610b4781610b0b565b9050919050565b60008115159050919050565b610b6381610b4e565b8114610b6e57600080fd5b50565b600081519050610b8081610b5a565b92915050565b600060208284031215610b9c57610b9b610846565b5b6000610baa84828501610b71565b91505092915050565b6000606082019050610bc860008301866108e0565b610bd560208301856108e0565b610be26040830184610a84565b94935050505056fea26469706673582212200c703fa1740319311659c0fc2c93ccaad1b38770b6a804ea71662af829e52f5c64736f6c634300080d0033",
  "immutableReferences": {},
  "source": "pragma solidity ^0.8.0;\n\nimport \"@openzeppelin/contracts/token/ERC20/ERC20.sol\";\nimport \"@openzeppelin/contracts/token/ERC20/IERC20.sol\";\nimport \"@openzeppelin/contracts/access/Ownable.sol\";\nimport \"./interfaces/IERC20Mintable.sol\";\nimport \"./interfaces/IWrapper.sol\";\n\ncontract Wrapper is IWrapper {\n    IERC20Mintable WTCG;\n    IERC20 TCG;\n\n    constructor(address _tcgAddress, address _wtcgAddress) {\n        WTCG = IERC20Mintable(_wtcgAddress);\n        TCG = IERC20(_tcgAddress);\n    }\n\n    // WTCG is minted one to one for every TCG wrapped\n    function wrap(uint256 _amount) external override {\n        require(\n            TCG.balanceOf(msg.sender) >= _amount,\n            \"Error: Your balance is not enough\"\n        );\n        require(\n            TCG.allowance(msg.sender, address(this)) >= _amount,\n            \"Error: Allowance not enough\"\n        );\n\n        // transfer TCG into contract\n        TCG.transferFrom(msg.sender, address(this), _amount);\n        // mint Wrapped TCG to msg.sender\n        WTCG.mint(msg.sender, _amount);\n    }\n\n    // WTCG is burned and TCG is sent to msg.sender, one to one ratio\n    function unwrap(uint256 _amount) external override {\n        require(\n            WTCG.balanceOf(msg.sender) >= _amount,\n            \"Error: Your balance is not enough\"\n        );\n        require(\n            WTCG.allowance(msg.sender, address(this)) >= _amount,\n            \"Error: Allowance not enough\"\n        );\n        // burn WTCG\n        WTCG.burn(msg.sender, _amount);\n        // burn Wrapped WTC\n        require(\n            TCG.balanceOf(address(this)) >= _amount,\n            \"Error: Contract TCG Balance is not enough\"\n        );\n        TCG.transfer(msg.sender, _amount);\n    }\n}\n",
  "sourcePath": "/Users/onyejivictor/Documents/code/2022/the-creators-galaxy/contracts/Wrapper.sol",
  "compiler": {
    "name": "solc",
    "version": "0.8.13+commit.abaa5c0e.Emscripten.clang"
  },
  "schemaVersion": "3.4.1",
  "updatedAt": "2022-03-27T22:21:56.546Z",
  "devdoc": {
    "kind": "dev",
    "methods": {},
    "version": 1
  },
  "userdoc": {
    "kind": "user",
    "methods": {},
    "version": 1
  }
}